{
    "contractName": "EthSwap",
    "abi": [
        {
            "inputs": [],
            "stateMutability": "nonpayable",
            "type": "constructor"
        },
        {
            "inputs": [],
            "name": "name",
            "outputs": [
                {
                    "internalType": "string",
                    "name": "",
                    "type": "string"
                }
            ],
            "stateMutability": "view",
            "type": "function"
        },
        {
            "inputs": [],
            "name": "token",
            "outputs": [
                {
                    "internalType": "contract Token",
                    "name": "",
                    "type": "address"
                }
            ],
            "stateMutability": "view",
            "type": "function"
        }
    ],
    "bytecode": "60c0604052601860808190527f4574685377617020496e7374616e742045786368616e6765000000000000000060a090815261003e9160009190610051565b5034801561004b57600080fd5b50610125565b82805461005d906100ea565b90600052602060002090601f01602090048101928261007f57600085556100c5565b82601f1061009857805160ff19168380011785556100c5565b828001600101855582156100c5579182015b828111156100c55782518255916020019190600101906100aa565b506100d19291506100d5565b5090565b5b808211156100d157600081556001016100d6565b600181811c908216806100fe57607f821691505b6020821081141561011f57634e487b7160e01b600052602260045260246000fd5b50919050565b6101d6806101346000396000f3fe608060405234801561001057600080fd5b50600436106100365760003560e01c806306fdde031461003b578063fc0c546a14610059575b600080fd5b610043610084565b6040516100509190610112565b60405180910390f35b60015461006c906001600160a01b031681565b6040516001600160a01b039091168152602001610050565b6000805461009190610165565b80601f01602080910402602001604051908101604052809291908181526020018280546100bd90610165565b801561010a5780601f106100df5761010080835404028352916020019161010a565b820191906000526020600020905b8154815290600101906020018083116100ed57829003601f168201915b505050505081565b6000602080835283518082850152825b8181101561013e57858101830151858201604001528201610122565b8181111561014f5783604083870101525b50601f01601f1916929092016040019392505050565b600181811c9082168061017957607f821691505b6020821081141561019a57634e487b7160e01b600052602260045260246000fd5b5091905056fea2646970667358221220590d13ed235aaed58508d699906d4f9b82375d00df9d32c3b1e532a58f8fa88564736f6c63430008030033",
    "sourcePath": "/Users/filipilic/Documents/Blockchain/Eth-Swap/src/contracts/EthSwap.sol",
    "compiler": {
        "name": "solc",
        "version": "0.8.3+commit.8d00100c"
    },
    "functionHashes": {
        "name()": "06fdde03",
        "token()": "fc0c546a"
    },
    "gasEstimates": {
        "creation": {
            "codeDepositCost": "94000",
            "executionCost": "infinite",
            "totalCost": "infinite"
        },
        "external": {
            "name()": "infinite",
            "token()": "1037"
        }
    }
}